:100000000C9462000C948A000C948A000C948A0070
:100010000C948A000C948A000C948A000C948A0038
:100020000C948A000C948A000C948A000C948A0028
:100030000C948A000C948A000C948A000C948A0018
:100040000C9400090C948A000C94CE080C94A80817
:100050000C948A000C948A000C948A000C948A00F8
:100060000C948A000C948A000000000024002700F1
:100070002A0000000000250028002B0000000000DE
:1000800023002600290004040404040404040202DA
:100090000202020203030303030301020408102007
:1000A0004080010204081020010204081020000012
:1000B0000008000201000003040700000000000027
:1000C00000004A0911241FBECFEFD8E0DEBFCDBF2C
:1000D00011E0A0E0B1E0EEEDF9E102C005900D9273
:1000E000AC36B107D9F722E0ACE6B1E001C01D9211
:1000F000A233B207E1F710E0C2E6D0E004C02197D6
:10010000FE010E94E20CC136D107C9F70E94950991
:100110000C94ED0C0C940000CF92DF92EF92FF92C2
:100120000F931F93CF93DF936C017A018B01C0E093
:10013000D0E0CE15DF0589F0D8016D918D01D60193
:10014000ED91FC910190F081E02DC6010995892B7C
:1001500011F47E0102C02196ECCFC701DF91CF914F
:100160001F910F91FF90EF90DF90CF900895FC01C9
:10017000918D828D981761F0828DDF01A80FB11DDE
:100180005D968C91928D9F5F9F73928F90E0089502
:100190008FEF9FEF0895FC01918D828D981731F0BC
:1001A000828DE80FF11D858D90E008958FEF9FEF10
:1001B0000895FC01918D228D892F90E0805C9F4FE6
:1001C000821B91098F73992708958DE791E00E9412
:1001D000D90021E0892B09F420E0822F0895FC0149
:1001E000848DDF01A80FB11DA35ABF4F2C91848DC0
:1001F00090E001968F739927848FA689B7892C93F5
:10020000A089B1898C9180648C93938D848D98138F
:1002100006C00288F389E02D80818F7D8083089558
:10022000EF92FF920F931F93CF93DF93EC0181E046
:10023000888F9B8D8C8D981305C0E889F989808102
:1002400085FD24C0F62E0B8D10E00F5F1F4F0F733E
:100250001127E02E8C8DE8120CC00FB607FCFACFE8
:10026000E889F989808185FFF5CFCE010E94EF00F2
:10027000F1CF8B8DFE01E80FF11DE35AFF4FF082A5
:100280000B8FEA89FB898081806207C0EE89FF8934
:100290006083E889F98980818064808381E090E0CF
:1002A000DF91CF911F910F91FF90EF900895CF9321
:1002B000DF93EC01888D8823C9F0EA89FB8980816E
:1002C00085FD05C0A889B9898C9186FD0FC00FB640
:1002D00007FCF5CF808185FFF2CFA889B9898C9181
:1002E00085FFEDCFCE010E94EF00E7CFDF91CF91E8
:1002F000089580E090E0892B29F00E94E5008111AB
:100300000C9400000895833081F028F4813099F036
:100310008230A1F008958730A9F08830B9F0843098
:10032000D1F4809180008F7D03C0809180008F7711
:1003300080938000089584B58F7702C084B58F7D47
:1003400084BD08958091B0008F7703C08091B00084
:100350008F7D8093B0000895CF93DF93282F30E0F6
:10036000F901E255FF4F8491F901E656FF4FD49110
:10037000F901EA57FF4FC491CC2391F081110E94FB
:100380008301EC2FF0E0EE0FFF1FE458FF4FA59123
:10039000B491EC91ED2381E090E021F480E002C083
:1003A00080E090E0DF91CF9108951F93CF93DF938A
:1003B000282F30E0F901E255FF4F8491F901E6560C
:1003C000FF4FD491F901EA57FF4FC491CC23C9F0F4
:1003D000162F81110E948301EC2FF0E0EE0FFF1F1A
:1003E000EE58FF4FA591B4918FB7F894111105C045
:1003F0009C91ED2FE095E92302C0EC91ED2BEC935D
:100400008FBFDF91CF911F910895CF93DF9390E03D
:10041000FC01E656FF4F2491FC01EA57FF4F8491FF
:10042000882361F190E0880F991FFC01E859FF4F84
:10043000C591D491FC01EE58FF4FA591B491611183
:1004400009C09FB7F8948881209582238883EC9116
:100450002E230BC0623061F49FB7F8943881822F4D
:10046000809583238883EC912E2B2C939FBF06C00D
:100470008FB7F894E8812E2B28838FBFDF91CF911F
:100480000895CF93DF93EC0161E089E00E940502BB
:10049000209711F460E004C0CF3FD10531F461E052
:1004A00089E0DF91CF910C94D501E7EBF0E0E49186
:1004B000E330F9F048F4E130B9F0E230A1F584B569
:1004C000806284BDC8BD34C0E730E9F0E83019F17E
:1004D000E43049F580918000806280938000D09361
:1004E0008B00C0938A0024C084B5806884BDC7BDDA
:1004F0001FC080918000806880938000D093890025
:10050000C093880015C08091B00080688093B000CF
:10051000C093B3000DC08091B00080628093B000A2
:10052000C093B40005C0C038D1050CF0B8CFB2CF2D
:10053000DF91CF9108958E3008F08E5087708064DF
:1005400080937C0080917A00806480937A0080910F
:100550007A0086FDFCCF809178002091790090E0B0
:10056000922B08953FB7F894809175019091760190
:10057000A0917701B091780126B5A89B05C02F3FC7
:1005800019F00196A11DB11D3FBFBA2FA92F982FB9
:100590008827820F911DA11DB11DBC01CD0142E034
:1005A000660F771F881F991F4A95D1F708958F927C
:1005B0009F92AF92BF92CF92DF92EF92FF926B0128
:1005C0007C010E94B2024B015C01C114D104E10420
:1005D000F104F1F00E94B202DC01CB018819990903
:1005E000AA09BB09883E9340A105B10570F321E03B
:1005F000C21AD108E108F10888EE880E83E0981E3F
:10060000A11CB11CC114D104E104F10419F7DDCF20
:10061000FF90EF90DF90CF90BF90AF909F908F9022
:100620000895CF93DF93EC0160E08E810E94D501A5
:1006300061E08E810E94D50160E08E810E94D5012B
:100640008BE891E00197F1F7DF91CF910895CF9278
:10065000DF92EF92FF920F931F93CF93DF937C0172
:100660006C0187E0C80ED11CC0E0D0E0062F10E07E
:10067000B8010C2E02C0759567950A94E2F7617077
:10068000F60181916F010E94D5012196C430D105F8
:1006900079F7C701DF91CF911F910F91FF90EF90F4
:1006A000DF90CF900C941103CF92DF92EF92FF92E4
:1006B0000F931F93CF93DF93EC01F62E642F8C8161
:1006C0000E94D5018D818F3F19F060E00E94D50115
:1006D0008F850F2D10E084FF25C06E0187E0C80EC6
:1006E000D11CE12CF12CB8010E2C02C07595679538
:1006F0000A94E2F76170F60181916F010E94D501C1
:10070000FFEFEF1AFF0A88E0E816F10461F7CE0167
:10071000DF91CF911F910F91FF90EF90DF90CF90DD
:100720000C941103B80184E0759567958A95E1F7FB
:10073000CE010E9427036F2DCE01DF91CF911F9133
:100740000F91FF90EF90DF90CF900C94270341E042
:100750000E94540381E090E0089540E00C9454031B
:10076000643008F063E090912D02691710F06FEF8C
:10077000690FE62FF0E0E65EFD4F9489682F690F60
:1007800060688AE192E00C94AD0361E00E94AD03E1
:100790008BE39FE10197F1F70895EF92FF920F939A
:1007A0001F93CF93DF93EC01623018F08F85886040
:1007B0008F876B8B1C8A80E48D8B80E18E8B80E52C
:1007C0008F8B61E08C810E9405028D818F3F19F033
:1007D00061E00E94050261E08E810E9405027E01B7
:1007E00087E0E80EF11C00E010E08F8584FD03C077
:1007F00084E090E002C088E090E0081719074CF40C
:1008000061E0F70181917F010E9405020F5F1F4F98
:10081000ECCF8BE39DE00197F1F760E08C810E94C3
:10082000D50160E08E810E94D5018D818F3F19F046
:1008300060E00E94D5016F8564FD1DC063E0CE01BC
:100840000E9427030BE416E4C8010197F1F763E067
:10085000CE010E942703C8010197F1F763E0CE01A2
:100860000E94270383E592E00197F1F762E0CE0151
:100870000E94270316C06062CE010E94AD038BE484
:1008800096E40197F1F76F856062CE010E94AD0397
:1008900083E592E00197F1F76F856062CE010E94D7
:1008A000AD036F856062CE010E94AD0384E0888B4A
:1008B0006CE0CE010E94AD03CE010E94C50382E030
:1008C000898B66E0CE01DF91CF911F910F91FF9050
:1008D000EF900C94AD03009769F0FC0101900020AB
:1008E000E9F73197AF01481B590BBC018AE192E04F
:1008F0000C948C0080E090E008950C946B048F922F
:100900009F92AF92BF920F931F93CF93DF93CDB778
:10091000DEB7A1970FB6F894DEBF0FBECDBF19A208
:10092000423008F44AE08E010F5D1F4F842E912C57
:10093000A12CB12CA50194010E94C00CE62FB90195
:10094000CA0101501109EA3014F4E05D01C0E95C0C
:10095000D801EC93232B242B252B61F7C8010E948F
:100960006B04A1960FB6F894DEBF0FBECDBFDF912A
:10097000CF911F910F91BF90AF909F908F9008954E
:100980004F925F926F927F928F929F92AF92BF929F
:10099000CF92DF92EF92FF926B017C01B42E9B010C
:1009A000AC010E94BB0C882319F08AE191E027C0BA
:1009B00026013701E89477F82FEF3FEF4FE75FE725
:1009C000C301B2010E94BB0C81110DC02FEF3FEF9C
:1009D0004FE75FE7C301B2010E94F10A18161CF449
:1009E0008EE191E00CC02FEF3FEF4FE75FE4C701CE
:1009F000B6010E94490C181684F482E291E0FF903F
:100A0000EF90DF90CF90BF90AF909F908F907F90AE
:100A10006F905F904F900C946B042FEF3FEF4FE778
:100A20005FECC701B6010E94F10A87FDE6CF20E026
:100A300030E0A901C701B6010E94F10A87FF11C089
:100A4000E0911A02F0911B020190F081E02D6DE21D
:100A50008AE192E009954C01F7FAF094F7F8F094E6
:100A600002C0812C912CA12C60E070E080E09FE31B
:100A7000AB1441F020E030E040E251E40E94F60A7D
:100A8000A394F6CF9B01AC01C701B6010E94850A71
:100A90002B013C010E94680B6B017C010E94970BAB
:100AA0009B01AC01C301B2010E94840A2B013C01ED
:100AB0004AE0C701B6010E947F047C01E80CF91CE2
:100AC000BB2069F0E0911A02F0911B020190F081C5
:100AD000E02D6EE28AE192E00995E80EF91EDB2C2A
:100AE000DD2021F120E030E040E251E4C301B20119
:100AF0000E944E0C2B013C010E94680B4B01A12C63
:100B0000B12C4AE0C501B4010E947F04E80EF91E31
:100B1000C501B4010E94970B9B01AC01C301B20156
:100B20000E94840A2B013C01DA94DACFC701FF90BE
:100B3000EF90DF90CF90BF90AF909F908F907F907D
:100B40006F905F904F9008952F923F924F925F92D7
:100B50006F927F928F929F92AF92BF92CF92DF92CD
:100B6000EF92FF920F931F93CF93DF93CDB7DEB732
:100B70002A970FB6F894DEBF0FBECDBF1A8619862E
:100B80002FB7F89460917101709172018091730197
:100B9000909174012FBF20E83EEE46E350E00E94A2
:100BA000C00C20936C0130936D0140936E01509303
:100BB0006F0160E087E00E94D50160E088E00E945C
:100BC000D50180E10E949B027C0181E10E949B0291
:100BD0008C0182E10E949B023C0183E10E949B0206
:100BE0001C01B701FF0C880B990B0E94990B6B013C
:100BF0007C01B801110F880B990B0E94990B9B0186
:100C0000AC01C701B6010E94840A20E030E040EA4E
:100C10005BE30E944E0C20E030E040E251E40E9491
:100C2000F60A20E030E04AE754E40E944E0C9B01B3
:100C3000AC0169817A818B819C810E94850A6983DC
:100C40007A838B839C8329853A85B901330F880B7E
:100C5000990B0E94990B6D837E838F8398879B01EC
:100C6000AC0169817A818B819C810E94F60A6B01BB
:100C70007C01B301770C880B990B0E94990B2B0117
:100C80003C01B101330C880B990B0E94990B9B011D
:100C9000AC01C301B2010E94840A20E030E040EAC6
:100CA0005BE30E944E0C9B01AC01C501B4010E94A4
:100CB000850A4B015C012D813E814F8158850E9440
:100CC000F60A2B013C0120E030E048EC52E4C70179
:100CD000B6010E94F10A87FF10C080910001909137
:100CE00001018F3F91054CF49C012F5F3F4F3093E2
:100CF0000101209300010E94410220E030E040EF1A
:100D000052E4C701B6010E94490C181684F4809180
:100D1000000190910101181619064CF49C01215014
:100D2000310930930101209300010E9441028AE1C0
:100D300092E00E94C50360E080E00E94B00386E27A
:100D400091E00E947D0460E086E00E94B00342E0F2
:100D5000C301B2010E94C00460E08CE00E94B003B5
:100D60008BE291E00E947D0461E080E00E94B0038C
:100D70008DE291E00E947D0461E08CE00E94B0036E
:100D800083E391E00E947D0461E086E00E94B0036D
:100D900042E0C701B6010E94C00468EE73E080E043
:100DA00090E00E94D7022DEC3CEC4CEC5FE3C301D9
:100DB000B2010E94490C181614F189859A85019692
:100DC0009A87898781339A4209F0DACE2A960FB63C
:100DD000F894DEBF0FBECDBFDF91CF911F910F9171
:100DE000FF90EF90DF90CF90BF90AF909F908F904B
:100DF0007F906F905F904F903F902F9008956091FB
:100E00006C0170916D0180916E0190916F010E9453
:100E1000970B2DEC3CEC4CEC5DE30E94490C181652
:100E200064F601E31AE220E030E040E251E4C70159
:100E3000B6010E94F10A87FF10C0809100019091D5
:100E400001018F3F91054CF49C012F5F3F4F309380
:100E50000101209300010E94410220E030E040EABD
:100E600051E4C701B6010E94490C18166CF4809138
:100E70000001909101019C01215031093093010141
:100E8000209300010E9441020150110961F695CFA3
:100E90004F925F926F927F928F929F92AF92BF928A
:100EA000CF92DF92EF92FF920F931F93CF93DF9336
:100EB000CDB7DEB728970FB6F894DEBF0FBECDBF13
:100EC00000E010E08EE00E949B027C018FE00E9417
:100ED0009B023C012FB7F8946091710170917201EF
:100EE00080917301909174012FBF20E83EEE46E39C
:100EF00050E00E94C00C29833A834B835C8320938B
:100F00006C0130936D0140936E0150936F01B701F6
:100F1000FF0C880B990B0E94990B6B017C01B301AC
:100F2000770C880B990B0E94990B9B01AC01C701B0
:100F3000B6010E94840A20E030E040EA5BE30E94B0
:100F40004E0C2B013C019B01AC01C501B4010E9478
:100F5000850A4B015C01B801012E000C880B990B2E
:100F60000E94990B9B01AC01C501B4010E94F60AD5
:100F70006B017C0161E087E00E94D50161E088E0BF
:100F80000E94D50126E636E646E950E4C701B601DF
:100F90000E94F60A20E030E04AE754E40E944E0C3A
:100FA0006D837E838F83988769817A818B819C8111
:100FB0000E94970B9B01AC016D817E818F8198858A
:100FC0000E944E0C69837A838B839C838AE192E032
:100FD0000E94C50360E080E00E94B00386E391E0D8
:100FE0000E947D048AE192E00E94C50360E080E0F7
:100FF0000E94B00386E291E00E947D0460E086E0FA
:101000000E94B00342E0C701B6010E94C00460E044
:101010008CE00E94B0038BE291E00E947D0461E0CD
:1010200080E00E94B0038DE291E00E947D0461E0C7
:101030008CE00E94B00383E391E00E947D0461E0B4
:1010400086E00E94B00326E636E646E950E4C30196
:10105000B2010E94F60A20E030E04AE754E40E9420
:101060004E0C42E00E94C00460ED77E080E090E02A
:101070000E94D7028AE192E00E94C50360E080E00E
:101080000E94B00383E491E00E947D0460E086E06A
:101090000E94B00342E069817A818B819C810E9429
:1010A000C00460E08BE00E94B00388E491E00E94FD
:1010B0007D0461E080E00E94B0038CE491E00E9436
:1010C0007D0461E086E00E94B00360916C01709144
:1010D0006D0180916E0190916F0141E00E947F044B
:1010E00061E08BE00E94B0038AE491E00E947D04FD
:1010F00060ED77E080E090E00E94D7022AE939E9CC
:1011000049E15FE3C701B6010E94F10A18163CF4F9
:101110000F5F1F4F01338AE2180709F0D3CE2896DC
:101120000FB6F894DEBF0FBECDBFDF91CF911F91F8
:101130000F91FF90EF90DF90CF90BF90AF909F9076
:101140008F907F906F905F904F9008950E94E80C71
:101150001F920F920FB60F9211242F933F934F932C
:101160005F936F937F938F939F93AF93BF93EF930F
:10117000FF938DE791E00E94EF00FF91EF91BF9107
:10118000AF919F918F917F916F915F914F913F911F
:101190002F910F900FBE0F901F9018951F920F92D6
:1011A0000FB60F9211242F938F939F93EF93FF937A
:1011B000E0918D01F0918E018081E0919301F09199
:1011C000940182FD12C09081809196018F5F8F7390
:1011D00020919701821751F0E0919601F0E0E358D9
:1011E000FE4F958F8093960101C08081FF91EF9112
:1011F0009F918F912F910F900FBE0F901F90189578
:101200001F920F920FB60F9211242F933F938F933B
:101210009F93AF93BF938091710190917201A091C0
:101220007301B09174013091700123E0230F2D37C9
:1012300020F40196A11DB11D05C026E8230F0296DA
:10124000A11DB11D209370018093710190937201D3
:10125000A0937301B0937401809175019091760110
:10126000A0917701B09178010196A11DB11D8093E5
:10127000750190937601A0937701B0937801BF91A7
:10128000AF919F918F913F912F910F900FBE0F9033
:101290001F901895EDE7F1E01382128288EE93E03B
:1012A000A0E0B0E084839583A683B78386E091E0D5
:1012B0009183808385EC90E09587848784EC90E02F
:1012C0009787868780EC90E0918B808B81EC90E013
:1012D000938B828B82EC90E0958B848B86EC90E0F4
:1012E000978B868B118E128E138E148EEAE1F2E0AC
:1012F0001382128286E191E0918380838CE0848363
:101300008FEF85838BE0868385E0878384E0808709
:1013100083E0818782E0828713861486158616868D
:10132000178661E0CF010C94CD03789484B5826078
:1013300084BD84B5816084BD85B5826085BD85B579
:10134000816085BD80916E00816080936E001092F7
:101350008100809181008260809381008091810072
:101360008160809381008091800081608093800003
:101370008091B10084608093B1008091B000816061
:101380008093B00080917A00846080937A0080918D
:101390007A00826080937A0080917A0081608093E5
:1013A0007A0080917A00806880937A001092C10060
:1013B00062E08AE192E00E94CD03E0918D01F0911C
:1013C0008E0182E08083E0918901F0918A01108290
:1013D000E0918B01F0918C018FEC8083109295014C
:1013E000E0919101F091920186E08083E0918F017C
:1013F000F0919001808180618083E0918F01F09174
:101400009001808188608083E0918F01F09190014C
:10141000808180688083E0918F01F09190018081CC
:101420008F7D80838AE192E00E94C50360E080E0C6
:101430000E94B00381E591E00E947D0461E080E0BC
:101440000E94B0038FE591E00E947D0461E087E097
:101450000E94050261E088E00E94050261E089E0E7
:101460000E94050260E086E00E94050260E08AE0DA
:101470000E94050286E00E94AC01EC0190937C0181
:1014800080937B018AE00E94AC0190937A01809363
:101490007901219711F5892B01F50E94480768EE23
:1014A00073E080E090E00E94D7020E94A40568EEFD
:1014B00073E080E090E00E94D7020E94480768EE47
:1014C00073E080E090E00E94D7020E94A40568EEDD
:1014D00073E080E090E00E94D702809179019091C2
:1014E0007A01019771F480917B0190917C01892BA5
:1014F00041F40E94A40568EE73E080E090E00E9451
:10150000D7020E947901B6CF5058BB27AA270E9464
:101510009C0A0C940F0C0E94010C38F00E94080CDD
:1015200020F039F49F3F19F426F40C94FE0B0EF4CE
:10153000E095E7FB0C94F80BE92F0E94200C58F380
:10154000BA17620773078407950720F079F4A6F5A8
:101550000C94420C0EF4E0950B2EBA2FA02D0B012B
:10156000B90190010C01CA01A0011124FF27591BE8
:1015700099F0593F50F4503E68F11A16F040A22FEE
:10158000232F342F4427585FF3CF4695379527955F
:10159000A795F0405395C9F77EF41F16BA0B620B5E
:1015A000730B840BBAF09150A1F0FF0FBB1F661FA5
:1015B000771F881FC2F70EC0BA0F621F731F841FE8
:1015C00048F4879577956795B795F7959E3F08F00E
:1015D000B0CF9395880F08F09927EE0F97958795D0
:1015E00008950E94D40B08F481E008950E940A0B2C
:1015F0000C940F0C0E94080C58F00E94010C40F053
:1016000029F45F3F29F00C94F80B51110C94430C12
:101610000C94FE0B0E94200C68F39923B1F3552320
:1016200091F3951B550BBB27AA27621773078407F5
:1016300038F09F5F5F4F220F331F441FAA1FA9F38B
:1016400035D00E2E3AF0E0E832D091505040E69579
:10165000001CCAF72BD0FE2F29D0660F771F881FDA
:10166000BB1F261737074807AB07B0E809F0BB0BCD
:10167000802DBF01FF2793585F4F3AF09E3F5105E1
:1016800078F00C94F80B0C94430C5F3FE4F3983E15
:10169000D4F3869577956795B795F7959F5FC9F7CA
:1016A000880F911D9695879597F90895E1E0660F4B
:1016B000771F881FBB1F621773078407BA0720F0C4
:1016C000621B730B840BBA0BEE1F88F7E09508952D
:1016D0000E94280C88F09F5798F0B92F9927B7518E
:1016E000B0F0E1F0660F771F881F991F1AF0BA95C6
:1016F000C9F714C0B13091F00E94420CB1E00895D6
:101700000C94420C672F782F8827B85F39F0B93FC7
:10171000CCF3869577956795B395D9F73EF4909578
:101720008095709561957F4F8F4F9F4F0895E894F6
:1017300009C097FB3EF490958095709561957F4F19
:101740008F4F9F4F9923A9F0F92F96E9BB279395C7
:10175000F695879577956795B795F111F8CFFAF4D7
:10176000BB0F11F460FF1BC06F5F7F4F8F4F9F4F08
:1017700016C0882311F096E911C0772321F09EE866
:10178000872F762F05C0662371F096E8862F70E0CC
:1017900060E02AF09A95660F771F881FDAF7880FA6
:1017A0009695879597F90895990F0008550FAA0BFC
:1017B000E0E8FEEF16161706E807F907C0F0121664
:1017C0001306E407F50798F0621B730B840B950B67
:1017D00039F40A2661F0232B242B252B21F40895BC
:1017E0000A2609F4A140A6958FEF811D811D089559
:1017F00097F99F6780E870E060E008959FEF80ECC4
:10180000089500240A941616170618060906089566
:1018100000240A9412161306140605060895092ECC
:101820000394000C11F4882352F0BB0F40F4BF2B3B
:1018300011F460FF04C06F5F7F4F8F4F9F4F08957B
:1018400057FD9058440F551F59F05F3F71F0479571
:10185000880F97FB991F61F09F3F79F08795089556
:10186000121613061406551FF2CF4695F1DF08C075
:10187000161617061806991FF1CF86957105610592
:1018800008940895E894BB2766277727CB0197F93A
:1018900008950E94D40B08F48FEF08950E94610C04
:1018A0000C940F0C0E94010C38F00E94080C20F0E0
:1018B000952311F00C94F80B0C94FE0B11240C944E
:1018C000430C0E94200C70F3959FC1F3950F50E0DC
:1018D000551F629FF001729FBB27F00DB11D639FE2
:1018E000AA27F00DB11DAA1F649F6627B00DA11D88
:1018F000661F829F2227B00DA11D621F739FB00D2E
:10190000A11D621F839FA00D611D221F749F33279D
:10191000A00D611D231F849F600D211D822F762F36
:101920006A2F11249F5750409AF0F1F088234AF013
:10193000EE0FFF1FBB1F661F771F881F915050407F
:10194000A9F79E3F510580F00C94F80B0C94430CC2
:101950005F3FE4F3983ED4F3869577956795B79506
:10196000F795E7959F5FC1F7FE2B880F911D969520
:10197000879597F908950E94D40B880B990B0895C9
:10198000A1E21A2EAA1BBB1BFD010DC0AA1FBB1F83
:10199000EE1FFF1FA217B307E407F50720F0A21BF5
:1019A000B30BE40BF50B661F771F881F991F1A9462
:1019B00069F760957095809590959B01AC01BD018C
:1019C000CF010895EE0FFF1F0590F491E02D0994CB
:0E19D00081E090E0F8940C94ED0CF894FFCFB9
:1019DE0040000000000010018C00D900B700CB00C1
:1019EE00570100000000A7038C006E616E00696E47
:1019FE0066006F7666006E61702E00560070726122
:101A0E00642E006D4100526F7A6C61646F77616E67
:101A1E00696500706F6A2E006D416800637A6173AC
:101A2E0000666F726D61742E202D2D3E2031006C7C
:0C1A3E0061646F772E202D2D3E203200B9
:107E0000112484B714BE81FFF0D085E080938100F7
:107E100082E08093C00088E18093C10086E0809377
:107E2000C20080E18093C4008EE0C9D0259A86E02C
:107E300020E33CEF91E0309385002093840096BBD3
:107E4000B09BFECF1D9AA8958150A9F7CC24DD24C4
:107E500088248394B5E0AB2EA1E19A2EF3E0BF2EE7
:107E6000A2D0813461F49FD0082FAFD0023811F036
:107E7000013811F484E001C083E08DD089C08234E0
:107E800011F484E103C0853419F485E0A6D080C0E4
:107E9000853579F488D0E82EFF2485D0082F10E0AE
:107EA000102F00270E291F29000F111F8ED06801E7
:107EB0006FC0863521F484E090D080E0DECF843638
:107EC00009F040C070D06FD0082F6DD080E0C81688
:107ED00080E7D80618F4F601B7BEE895C0E0D1E017
:107EE00062D089930C17E1F7F0E0CF16F0E7DF06D8
:107EF00018F0F601B7BEE89568D007B600FCFDCFD4
:107F0000A601A0E0B1E02C9130E011968C91119780
:107F100090E0982F8827822B932B1296FA010C0160
:107F200087BEE89511244E5F5F4FF1E0A038BF0790
:107F300051F7F601A7BEE89507B600FCFDCF97BE46
:107F4000E89526C08437B1F42ED02DD0F82E2BD052
:107F50003CD0F601EF2C8F010F5F1F4F84911BD097
:107F6000EA94F801C1F70894C11CD11CFA94CF0C13
:107F7000D11C0EC0853739F428D08EE10CD085E9AC
:107F80000AD08FE07ACF813511F488E018D01DD067
:107F900080E101D065CF982F8091C00085FFFCCF94
:107FA0009093C60008958091C00087FFFCCF809118
:107FB000C00084FD01C0A8958091C6000895E0E648
:107FC000F0E098E1908380830895EDDF803219F02E
:107FD00088E0F5DFFFCF84E1DECF1F93182FE3DFCA
:107FE0001150E9F7F2DF1F91089580E0E8DFEE27F6
:047FF000FF270994CA
:027FFE00040479
:0400000300007E007B
:00000001FF
